{
  "_format": "hh-sol-artifact-1",
  "contractName": "Factory",
  "sourceName": "contracts/Factory.sol",
  "abi": [
    {
      "inputs": [
        {
          "internalType": "uint256",
          "name": "_fee",
          "type": "uint256"
        }
      ],
      "stateMutability": "nonpayable",
      "type": "constructor"
    },
    {
      "anonymous": false,
      "inputs": [
        {
          "indexed": true,
          "internalType": "address",
          "name": "token",
          "type": "address"
        },
        {
          "indexed": false,
          "internalType": "uint256",
          "name": "amount",
          "type": "uint256"
        }
      ],
      "name": "Buy",
      "type": "event"
    },
    {
      "anonymous": false,
      "inputs": [
        {
          "indexed": true,
          "internalType": "address",
          "name": "token",
          "type": "address"
        }
      ],
      "name": "Created",
      "type": "event"
    },
    {
      "inputs": [],
      "name": "TARGET",
      "outputs": [
        {
          "internalType": "uint256",
          "name": "",
          "type": "uint256"
        }
      ],
      "stateMutability": "view",
      "type": "function"
    },
    {
      "inputs": [],
      "name": "TOKEN_LIMIT",
      "outputs": [
        {
          "internalType": "uint256",
          "name": "",
          "type": "uint256"
        }
      ],
      "stateMutability": "view",
      "type": "function"
    },
    {
      "inputs": [
        {
          "internalType": "address",
          "name": "_token",
          "type": "address"
        },
        {
          "internalType": "uint256",
          "name": "_amount",
          "type": "uint256"
        }
      ],
      "name": "buy",
      "outputs": [],
      "stateMutability": "payable",
      "type": "function"
    },
    {
      "inputs": [
        {
          "internalType": "string",
          "name": "_name",
          "type": "string"
        },
        {
          "internalType": "string",
          "name": "_symbol",
          "type": "string"
        }
      ],
      "name": "createToken",
      "outputs": [],
      "stateMutability": "payable",
      "type": "function"
    },
    {
      "inputs": [
        {
          "internalType": "address",
          "name": "_token",
          "type": "address"
        }
      ],
      "name": "deposit",
      "outputs": [],
      "stateMutability": "nonpayable",
      "type": "function"
    },
    {
      "inputs": [],
      "name": "fee",
      "outputs": [
        {
          "internalType": "uint256",
          "name": "",
          "type": "uint256"
        }
      ],
      "stateMutability": "view",
      "type": "function"
    },
    {
      "inputs": [
        {
          "internalType": "uint256",
          "name": "_sold",
          "type": "uint256"
        }
      ],
      "name": "getCost",
      "outputs": [
        {
          "internalType": "uint256",
          "name": "",
          "type": "uint256"
        }
      ],
      "stateMutability": "pure",
      "type": "function"
    },
    {
      "inputs": [
        {
          "internalType": "uint256",
          "name": "_index",
          "type": "uint256"
        }
      ],
      "name": "getTokenSale",
      "outputs": [
        {
          "components": [
            {
              "internalType": "address",
              "name": "token",
              "type": "address"
            },
            {
              "internalType": "string",
              "name": "name",
              "type": "string"
            },
            {
              "internalType": "address",
              "name": "creator",
              "type": "address"
            },
            {
              "internalType": "uint256",
              "name": "sold",
              "type": "uint256"
            },
            {
              "internalType": "uint256",
              "name": "raised",
              "type": "uint256"
            },
            {
              "internalType": "bool",
              "name": "isOpen",
              "type": "bool"
            }
          ],
          "internalType": "struct Factory.TokenSale",
          "name": "",
          "type": "tuple"
        }
      ],
      "stateMutability": "view",
      "type": "function"
    },
    {
      "inputs": [],
      "name": "owner",
      "outputs": [
        {
          "internalType": "address",
          "name": "",
          "type": "address"
        }
      ],
      "stateMutability": "view",
      "type": "function"
    },
    {
      "inputs": [
        {
          "internalType": "address",
          "name": "",
          "type": "address"
        }
      ],
      "name": "tokenToSale",
      "outputs": [
        {
          "internalType": "address",
          "name": "token",
          "type": "address"
        },
        {
          "internalType": "string",
          "name": "name",
          "type": "string"
        },
        {
          "internalType": "address",
          "name": "creator",
          "type": "address"
        },
        {
          "internalType": "uint256",
          "name": "sold",
          "type": "uint256"
        },
        {
          "internalType": "uint256",
          "name": "raised",
          "type": "uint256"
        },
        {
          "internalType": "bool",
          "name": "isOpen",
          "type": "bool"
        }
      ],
      "stateMutability": "view",
      "type": "function"
    },
    {
      "inputs": [
        {
          "internalType": "uint256",
          "name": "",
          "type": "uint256"
        }
      ],
      "name": "tokens",
      "outputs": [
        {
          "internalType": "address",
          "name": "",
          "type": "address"
        }
      ],
      "stateMutability": "view",
      "type": "function"
    },
    {
      "inputs": [],
      "name": "totalTokens",
      "outputs": [
        {
          "internalType": "uint256",
          "name": "",
          "type": "uint256"
        }
      ],
      "stateMutability": "view",
      "type": "function"
    },
    {
      "inputs": [
        {
          "internalType": "uint256",
          "name": "_amount",
          "type": "uint256"
        }
      ],
      "name": "withdraw",
      "outputs": [],
      "stateMutability": "nonpayable",
      "type": "function"
    }
  ],
  "bytecode": "0x60a060405234801561001057600080fd5b50604051613c3e380380613c3e833981810160405281019061003291906100bb565b8060808181525050336000806101000a81548173ffffffffffffffffffffffffffffffffffffffff021916908373ffffffffffffffffffffffffffffffffffffffff160217905550506100e8565b600080fd5b6000819050919050565b61009881610085565b81146100a357600080fd5b50565b6000815190506100b58161008f565b92915050565b6000602082840312156100d1576100d0610080565b5b60006100df848285016100a6565b91505092915050565b608051613b3461010a600039600081816106940152610e5e0152613b346000f3fe6080604052600436106100c25760003560e01c80637e1c0c091161007f578063cc1f2afa11610059578063cc1f2afa14610286578063cce7ec13146102b1578063ddca3f43146102cd578063f340fa01146102f8576100c2565b80637e1c0c09146101ee5780638da5cb5b146102195780639c0ad5ed14610244576100c2565b8063031bd4c4146100c75780631fbc147b146100f25780632e1a7d4d1461012f5780632f2f2d56146101585780634f64b2be146101745780635a4dd47d146101b1575b600080fd5b3480156100d357600080fd5b506100dc610321565b6040516100e991906112cb565b60405180910390f35b3480156100fe57600080fd5b5061011960048036038101906101149190611326565b61032f565b60405161012691906114d7565b60405180910390f35b34801561013b57600080fd5b5061015660048036038101906101519190611326565b610533565b005b610172600480360381019061016d919061162e565b610692565b005b34801561018057600080fd5b5061019b60048036038101906101969190611326565b61097e565b6040516101a891906116b5565b60405180910390f35b3480156101bd57600080fd5b506101d860048036038101906101d39190611326565b6109bd565b6040516101e591906112cb565b60405180910390f35b3480156101fa57600080fd5b50610203610a15565b60405161021091906112cb565b60405180910390f35b34801561022557600080fd5b5061022e610a1b565b60405161023b91906116b5565b60405180910390f35b34801561025057600080fd5b5061026b600480360381019061026691906116fc565b610a3f565b60405161027d96959493929190611782565b60405180910390f35b34801561029257600080fd5b5061029b610b50565b6040516102a891906112cb565b60405180910390f35b6102cb60048036038101906102c691906117ea565b610b5c565b005b3480156102d957600080fd5b506102e2610e5c565b6040516102ef91906112cb565b60405180910390f35b34801561030457600080fd5b5061031f600480360381019061031a91906116fc565b610e80565b005b6969e10de76676d080000081565b610337611241565b600360006002848154811061034f5761034e61182a565b5b9060005260206000200160009054906101000a900473ffffffffffffffffffffffffffffffffffffffff1673ffffffffffffffffffffffffffffffffffffffff1673ffffffffffffffffffffffffffffffffffffffff1681526020019081526020016000206040518060c00160405290816000820160009054906101000a900473ffffffffffffffffffffffffffffffffffffffff1673ffffffffffffffffffffffffffffffffffffffff1673ffffffffffffffffffffffffffffffffffffffff16815260200160018201805461042590611888565b80601f016020809104026020016040519081016040528092919081815260200182805461045190611888565b801561049e5780601f106104735761010080835404028352916020019161049e565b820191906000526020600020905b81548152906001019060200180831161048157829003601f168201915b505050505081526020016002820160009054906101000a900473ffffffffffffffffffffffffffffffffffffffff1673ffffffffffffffffffffffffffffffffffffffff1673ffffffffffffffffffffffffffffffffffffffff16815260200160038201548152602001600482015481526020016005820160009054906101000a900460ff1615151515815250509050919050565b60008054906101000a900473ffffffffffffffffffffffffffffffffffffffff1673ffffffffffffffffffffffffffffffffffffffff163373ffffffffffffffffffffffffffffffffffffffff16146105c1576040517f08c379a00000000000000000000000000000000000000000000000000000000081526004016105b890611905565b60405180910390fd5b60008060009054906101000a900473ffffffffffffffffffffffffffffffffffffffff1673ffffffffffffffffffffffffffffffffffffffff168260405161060890611956565b60006040518083038185875af1925050503d8060008114610645576040519150601f19603f3d011682016040523d82523d6000602084013e61064a565b606091505b505090508061068e576040517f08c379a0000000000000000000000000000000000000000000000000000000008152600401610685906119b7565b60405180910390fd5b5050565b7f00000000000000000000000000000000000000000000000000000000000000003410156106f5576040517f08c379a00000000000000000000000000000000000000000000000000000000081526004016106ec90611a23565b60405180910390fd5b600033838369d3c21bcecceda1000000604051610711906112a5565b61071e9493929190611a88565b604051809103906000f08015801561073a573d6000803e3d6000fd5b5090506002819080600181540180825580915050600190039060005260206000200160009091909190916101000a81548173ffffffffffffffffffffffffffffffffffffffff021916908373ffffffffffffffffffffffffffffffffffffffff160217905550600160008154809291906107b390611b0a565b919050555060006040518060c001604052808373ffffffffffffffffffffffffffffffffffffffff1681526020018581526020013373ffffffffffffffffffffffffffffffffffffffff168152602001600081526020016000815260200160011515815250905080600360008473ffffffffffffffffffffffffffffffffffffffff1673ffffffffffffffffffffffffffffffffffffffff16815260200190815260200160002060008201518160000160006101000a81548173ffffffffffffffffffffffffffffffffffffffff021916908373ffffffffffffffffffffffffffffffffffffffff16021790555060208201518160010190816108b69190611cf4565b5060408201518160020160006101000a81548173ffffffffffffffffffffffffffffffffffffffff021916908373ffffffffffffffffffffffffffffffffffffffff160217905550606082015181600301556080820151816004015560a08201518160050160006101000a81548160ff0219169083151502179055509050508173ffffffffffffffffffffffffffffffffffffffff167f1449abf21e49fd025f33495e77f7b1461caefdd3d4bb646424a3f445c4576a5b60405160405180910390a250505050565b6002818154811061098e57600080fd5b906000526020600020016000915054906101000a900473ffffffffffffffffffffffffffffffffffffffff1681565b600080655af3107a400090506000655af3107a40009050600069021e19e0c9bab2400000905060008382876109f29190611df5565b846109fd9190611e26565b610a079190611e68565b905080945050505050919050565b60015481565b60008054906101000a900473ffffffffffffffffffffffffffffffffffffffff1681565b60036020528060005260406000206000915090508060000160009054906101000a900473ffffffffffffffffffffffffffffffffffffffff1690806001018054610a8890611888565b80601f0160208091040260200160405190810160405280929190818152602001828054610ab490611888565b8015610b015780601f10610ad657610100808354040283529160200191610b01565b820191906000526020600020905b815481529060010190602001808311610ae457829003601f168201915b5050505050908060020160009054906101000a900473ffffffffffffffffffffffffffffffffffffffff16908060030154908060040154908060050160009054906101000a900460ff16905086565b6729a2241af62c000081565b6000600360008473ffffffffffffffffffffffffffffffffffffffff1673ffffffffffffffffffffffffffffffffffffffff1681526020019081526020016000209050600115158160050160009054906101000a900460ff16151514610bf7576040517f08c379a0000000000000000000000000000000000000000000000000000000008152600401610bee90611ee8565b60405180910390fd5b670de0b6b3a7640000821015610c42576040517f08c379a0000000000000000000000000000000000000000000000000000000008152600401610c3990611f54565b60405180910390fd5b69021e19e0c9bab2400000821115610c8f576040517f08c379a0000000000000000000000000000000000000000000000000000000008152600401610c8690611fc0565b60405180910390fd5b6000610c9e82600301546109bd565b90506000670de0b6b3a764000084610cb69190611df5565b82610cc19190611e26565b905080341015610d06576040517f08c379a0000000000000000000000000000000000000000000000000000000008152600401610cfd90612052565b60405180910390fd5b83836003016000828254610d1a9190611e68565b9250508190555080836004016000828254610d359190611e68565b925050819055506969e10de76676d08000008360030154101580610d6557506729a2241af62c0000836004015410155b15610d885760008360050160006101000a81548160ff0219169083151502179055505b8473ffffffffffffffffffffffffffffffffffffffff1663a9059cbb33866040518363ffffffff1660e01b8152600401610dc3929190612072565b6020604051808303816000875af1158015610de2573d6000803e3d6000fd5b505050506040513d601f19601f82011682018060405250810190610e0691906120c7565b508473ffffffffffffffffffffffffffffffffffffffff167fe3d4187f6ca4248660cc0ac8b8056515bac4a8132be2eca31d6d0cc170722a7e85604051610e4d91906112cb565b60405180910390a25050505050565b7f000000000000000000000000000000000000000000000000000000000000000081565b60008190506000600360008473ffffffffffffffffffffffffffffffffffffffff1673ffffffffffffffffffffffffffffffffffffffff1681526020019081526020016000206040518060c00160405290816000820160009054906101000a900473ffffffffffffffffffffffffffffffffffffffff1673ffffffffffffffffffffffffffffffffffffffff1673ffffffffffffffffffffffffffffffffffffffff168152602001600182018054610f3790611888565b80601f0160208091040260200160405190810160405280929190818152602001828054610f6390611888565b8015610fb05780601f10610f8557610100808354040283529160200191610fb0565b820191906000526020600020905b815481529060010190602001808311610f9357829003601f168201915b505050505081526020016002820160009054906101000a900473ffffffffffffffffffffffffffffffffffffffff1673ffffffffffffffffffffffffffffffffffffffff1673ffffffffffffffffffffffffffffffffffffffff16815260200160038201548152602001600482015481526020016005820160009054906101000a900460ff1615151515815250509050600015158160a0015115151461108b576040517f08c379a000000000000000000000000000000000000000000000000000000000815260040161108290612140565b60405180910390fd5b8173ffffffffffffffffffffffffffffffffffffffff1663a9059cbb82604001518473ffffffffffffffffffffffffffffffffffffffff166370a08231306040518263ffffffff1660e01b81526004016110e591906116b5565b602060405180830381865afa158015611102573d6000803e3d6000fd5b505050506040513d601f19601f820116820180604052508101906111269190612175565b6040518363ffffffff1660e01b8152600401611143929190612072565b6020604051808303816000875af1158015611162573d6000803e3d6000fd5b505050506040513d601f19601f8201168201806040525081019061118691906120c7565b506000816040015173ffffffffffffffffffffffffffffffffffffffff1682608001516040516111b590611956565b60006040518083038185875af1925050503d80600081146111f2576040519150601f19603f3d011682016040523d82523d6000602084013e6111f7565b606091505b505090508061123b576040517f08c379a0000000000000000000000000000000000000000000000000000000008152600401611232906119b7565b60405180910390fd5b50505050565b6040518060c00160405280600073ffffffffffffffffffffffffffffffffffffffff16815260200160608152602001600073ffffffffffffffffffffffffffffffffffffffff16815260200160008152602001600081526020016000151581525090565b61195c806121a383390190565b6000819050919050565b6112c5816112b2565b82525050565b60006020820190506112e060008301846112bc565b92915050565b6000604051905090565b600080fd5b600080fd5b611303816112b2565b811461130e57600080fd5b50565b600081359050611320816112fa565b92915050565b60006020828403121561133c5761133b6112f0565b5b600061134a84828501611311565b91505092915050565b600073ffffffffffffffffffffffffffffffffffffffff82169050919050565b600061137e82611353565b9050919050565b61138e81611373565b82525050565b600081519050919050565b600082825260208201905092915050565b60005b838110156113ce5780820151818401526020810190506113b3565b60008484015250505050565b6000601f19601f8301169050919050565b60006113f682611394565b611400818561139f565b93506114108185602086016113b0565b611419816113da565b840191505092915050565b61142d816112b2565b82525050565b60008115159050919050565b61144881611433565b82525050565b600060c0830160008301516114666000860182611385565b506020830151848203602086015261147e82826113eb565b91505060408301516114936040860182611385565b5060608301516114a66060860182611424565b5060808301516114b96080860182611424565b5060a08301516114cc60a086018261143f565b508091505092915050565b600060208201905081810360008301526114f1818461144e565b905092915050565b600080fd5b600080fd5b7f4e487b7100000000000000000000000000000000000000000000000000000000600052604160045260246000fd5b61153b826113da565b810181811067ffffffffffffffff8211171561155a57611559611503565b5b80604052505050565b600061156d6112e6565b90506115798282611532565b919050565b600067ffffffffffffffff82111561159957611598611503565b5b6115a2826113da565b9050602081019050919050565b82818337600083830152505050565b60006115d16115cc8461157e565b611563565b9050828152602081018484840111156115ed576115ec6114fe565b5b6115f88482856115af565b509392505050565b600082601f830112611615576116146114f9565b5b81356116258482602086016115be565b91505092915050565b60008060408385031215611645576116446112f0565b5b600083013567ffffffffffffffff811115611663576116626112f5565b5b61166f85828601611600565b925050602083013567ffffffffffffffff8111156116905761168f6112f5565b5b61169c85828601611600565b9150509250929050565b6116af81611373565b82525050565b60006020820190506116ca60008301846116a6565b92915050565b6116d981611373565b81146116e457600080fd5b50565b6000813590506116f6816116d0565b92915050565b600060208284031215611712576117116112f0565b5b6000611720848285016116e7565b91505092915050565b600082825260208201905092915050565b600061174582611394565b61174f8185611729565b935061175f8185602086016113b0565b611768816113da565b840191505092915050565b61177c81611433565b82525050565b600060c08201905061179760008301896116a6565b81810360208301526117a9818861173a565b90506117b860408301876116a6565b6117c560608301866112bc565b6117d260808301856112bc565b6117df60a0830184611773565b979650505050505050565b60008060408385031215611801576118006112f0565b5b600061180f858286016116e7565b925050602061182085828601611311565b9150509250929050565b7f4e487b7100000000000000000000000000000000000000000000000000000000600052603260045260246000fd5b7f4e487b7100000000000000000000000000000000000000000000000000000000600052602260045260246000fd5b600060028204905060018216806118a057607f821691505b6020821081036118b3576118b2611859565b5b50919050565b7f466163746f72793a204e6f74206f776e65720000000000000000000000000000600082015250565b60006118ef601283611729565b91506118fa826118b9565b602082019050919050565b6000602082019050818103600083015261191e816118e2565b9050919050565b600081905092915050565b50565b6000611940600083611925565b915061194b82611930565b600082019050919050565b600061196182611933565b9150819050919050565b7f466163746f72793a20455448207472616e73666572206661696c656400000000600082015250565b60006119a1601c83611729565b91506119ac8261196b565b602082019050919050565b600060208201905081810360008301526119d081611994565b9050919050565b7f466163746f72793a2043726561746f7220666565206e6f74206d657400000000600082015250565b6000611a0d601c83611729565b9150611a18826119d7565b602082019050919050565b60006020820190508181036000830152611a3c81611a00565b9050919050565b6000819050919050565b6000819050919050565b6000611a72611a6d611a6884611a43565b611a4d565b6112b2565b9050919050565b611a8281611a57565b82525050565b6000608082019050611a9d60008301876116a6565b8181036020830152611aaf818661173a565b90508181036040830152611ac3818561173a565b9050611ad26060830184611a79565b95945050505050565b7f4e487b7100000000000000000000000000000000000000000000000000000000600052601160045260246000fd5b6000611b15826112b2565b91507fffffffffffffffffffffffffffffffffffffffffffffffffffffffffffffffff8203611b4757611b46611adb565b5b600182019050919050565b60008190508160005260206000209050919050565b60006020601f8301049050919050565b600082821b905092915050565b600060088302611bb47fffffffffffffffffffffffffffffffffffffffffffffffffffffffffffffffff82611b77565b611bbe8683611b77565b95508019841693508086168417925050509392505050565b6000611bf1611bec611be7846112b2565b611a4d565b6112b2565b9050919050565b6000819050919050565b611c0b83611bd6565b611c1f611c1782611bf8565b848454611b84565b825550505050565b600090565b611c34611c27565b611c3f818484611c02565b505050565b5b81811015611c6357611c58600082611c2c565b600181019050611c45565b5050565b601f821115611ca857611c7981611b52565b611c8284611b67565b81016020851015611c91578190505b611ca5611c9d85611b67565b830182611c44565b50505b505050565b600082821c905092915050565b6000611ccb60001984600802611cad565b1980831691505092915050565b6000611ce48383611cba565b9150826002028217905092915050565b611cfd82611394565b67ffffffffffffffff811115611d1657611d15611503565b5b611d208254611888565b611d2b828285611c67565b600060209050601f831160018114611d5e5760008415611d4c578287015190505b611d568582611cd8565b865550611dbe565b601f198416611d6c86611b52565b60005b82811015611d9457848901518255600182019150602085019450602081019050611d6f565b86831015611db15784890151611dad601f891682611cba565b8355505b6001600288020188555050505b505050505050565b7f4e487b7100000000000000000000000000000000000000000000000000000000600052601260045260246000fd5b6000611e00826112b2565b9150611e0b836112b2565b925082611e1b57611e1a611dc6565b5b828204905092915050565b6000611e31826112b2565b9150611e3c836112b2565b9250828202611e4a816112b2565b91508282048414831517611e6157611e60611adb565b5b5092915050565b6000611e73826112b2565b9150611e7e836112b2565b9250828201905080821115611e9657611e95611adb565b5b92915050565b7f466163746f72793a20427579696e6720636c6f73656400000000000000000000600082015250565b6000611ed2601683611729565b9150611edd82611e9c565b602082019050919050565b60006020820190508181036000830152611f0181611ec5565b9050919050565b7f466163746f72793a20416d6f756e7420746f6f206c6f77000000000000000000600082015250565b6000611f3e601783611729565b9150611f4982611f08565b602082019050919050565b60006020820190508181036000830152611f6d81611f31565b9050919050565b7f466163746f72793a20416d6f756e742065786365656465640000000000000000600082015250565b6000611faa601883611729565b9150611fb582611f74565b602082019050919050565b60006020820190508181036000830152611fd981611f9d565b9050919050565b7f466163746f72793a20496e73756666696369656e74204554482072656365697660008201527f6564000000000000000000000000000000000000000000000000000000000000602082015250565b600061203c602283611729565b915061204782611fe0565b604082019050919050565b6000602082019050818103600083015261206b8161202f565b9050919050565b600060408201905061208760008301856116a6565b61209460208301846112bc565b9392505050565b6120a481611433565b81146120af57600080fd5b50565b6000815190506120c18161209b565b92915050565b6000602082840312156120dd576120dc6112f0565b5b60006120eb848285016120b2565b91505092915050565b7f466163746f72793a20546172676574206e6f7420726561636865640000000000600082015250565b600061212a601b83611729565b9150612135826120f4565b602082019050919050565b600060208201905081810360008301526121598161211d565b9050919050565b60008151905061216f816112fa565b92915050565b60006020828403121561218b5761218a6112f0565b5b600061219984828501612160565b9150509291505056fe608060405234801561001057600080fd5b5060405161195c38038061195c833981810160405281019061003291906105a7565b82828160039081610043919061085d565b508060049081610053919061085d565b50505033600560006101000a81548173ffffffffffffffffffffffffffffffffffffffff021916908373ffffffffffffffffffffffffffffffffffffffff16021790555083600660006101000a81548173ffffffffffffffffffffffffffffffffffffffff021916908373ffffffffffffffffffffffffffffffffffffffff1602179055506100e833826100f160201b60201c565b50505050610a1d565b600073ffffffffffffffffffffffffffffffffffffffff168273ffffffffffffffffffffffffffffffffffffffff16036101635760006040517fec442f0500000000000000000000000000000000000000000000000000000000815260040161015a919061093e565b60405180910390fd5b6101756000838361017960201b60201c565b5050565b600073ffffffffffffffffffffffffffffffffffffffff168373ffffffffffffffffffffffffffffffffffffffff16036101cb5780600260008282546101bf9190610988565b9250508190555061029e565b60008060008573ffffffffffffffffffffffffffffffffffffffff1673ffffffffffffffffffffffffffffffffffffffff16815260200190815260200160002054905081811015610257578381836040517fe450d38c00000000000000000000000000000000000000000000000000000000815260040161024e939291906109cb565b60405180910390fd5b8181036000808673ffffffffffffffffffffffffffffffffffffffff1673ffffffffffffffffffffffffffffffffffffffff16815260200190815260200160002081905550505b600073ffffffffffffffffffffffffffffffffffffffff168273ffffffffffffffffffffffffffffffffffffffff16036102e75780600260008282540392505081905550610334565b806000808473ffffffffffffffffffffffffffffffffffffffff1673ffffffffffffffffffffffffffffffffffffffff168152602001908152602001600020600082825401925050819055505b8173ffffffffffffffffffffffffffffffffffffffff168373ffffffffffffffffffffffffffffffffffffffff167fddf252ad1be2c89b69c2b068fc378daa952ba7f163c4a11628f55a4df523b3ef836040516103919190610a02565b60405180910390a3505050565b6000604051905090565b600080fd5b600080fd5b600073ffffffffffffffffffffffffffffffffffffffff82169050919050565b60006103dd826103b2565b9050919050565b6103ed816103d2565b81146103f857600080fd5b50565b60008151905061040a816103e4565b92915050565b600080fd5b600080fd5b6000601f19601f8301169050919050565b7f4e487b7100000000000000000000000000000000000000000000000000000000600052604160045260246000fd5b6104638261041a565b810181811067ffffffffffffffff821117156104825761048161042b565b5b80604052505050565b600061049561039e565b90506104a1828261045a565b919050565b600067ffffffffffffffff8211156104c1576104c061042b565b5b6104ca8261041a565b9050602081019050919050565b60005b838110156104f55780820151818401526020810190506104da565b60008484015250505050565b600061051461050f846104a6565b61048b565b9050828152602081018484840111156105305761052f610415565b5b61053b8482856104d7565b509392505050565b600082601f83011261055857610557610410565b5b8151610568848260208601610501565b91505092915050565b6000819050919050565b61058481610571565b811461058f57600080fd5b50565b6000815190506105a18161057b565b92915050565b600080600080608085870312156105c1576105c06103a8565b5b60006105cf878288016103fb565b945050602085015167ffffffffffffffff8111156105f0576105ef6103ad565b5b6105fc87828801610543565b935050604085015167ffffffffffffffff81111561061d5761061c6103ad565b5b61062987828801610543565b925050606061063a87828801610592565b91505092959194509250565b600081519050919050565b7f4e487b7100000000000000000000000000000000000000000000000000000000600052602260045260246000fd5b6000600282049050600182168061069857607f821691505b6020821081036106ab576106aa610651565b5b50919050565b60008190508160005260206000209050919050565b60006020601f8301049050919050565b600082821b905092915050565b6000600883026107137fffffffffffffffffffffffffffffffffffffffffffffffffffffffffffffffff826106d6565b61071d86836106d6565b95508019841693508086168417925050509392505050565b6000819050919050565b600061075a61075561075084610571565b610735565b610571565b9050919050565b6000819050919050565b6107748361073f565b61078861078082610761565b8484546106e3565b825550505050565b600090565b61079d610790565b6107a881848461076b565b505050565b5b818110156107cc576107c1600082610795565b6001810190506107ae565b5050565b601f821115610811576107e2816106b1565b6107eb846106c6565b810160208510156107fa578190505b61080e610806856106c6565b8301826107ad565b50505b505050565b600082821c905092915050565b600061083460001984600802610816565b1980831691505092915050565b600061084d8383610823565b9150826002028217905092915050565b61086682610646565b67ffffffffffffffff81111561087f5761087e61042b565b5b6108898254610680565b6108948282856107d0565b600060209050601f8311600181146108c757600084156108b5578287015190505b6108bf8582610841565b865550610927565b601f1984166108d5866106b1565b60005b828110156108fd578489015182556001820191506020850194506020810190506108d8565b8683101561091a5784890151610916601f891682610823565b8355505b6001600288020188555050505b505050505050565b610938816103d2565b82525050565b6000602082019050610953600083018461092f565b92915050565b7f4e487b7100000000000000000000000000000000000000000000000000000000600052601160045260246000fd5b600061099382610571565b915061099e83610571565b92508282019050808211156109b6576109b5610959565b5b92915050565b6109c581610571565b82525050565b60006060820190506109e0600083018661092f565b6109ed60208301856109bc565b6109fa60408301846109bc565b949350505050565b6000602082019050610a1760008301846109bc565b92915050565b610f3080610a2c6000396000f3fe608060405234801561001057600080fd5b50600436106100a95760003560e01c8063313ce56711610071578063313ce5671461016857806370a08231146101865780638da5cb5b146101b657806395d89b41146101d4578063a9059cbb146101f2578063dd62ed3e14610222576100a9565b806302d05d3f146100ae57806306fdde03146100cc578063095ea7b3146100ea57806318160ddd1461011a57806323b872dd14610138575b600080fd5b6100b6610252565b6040516100c39190610af9565b60405180910390f35b6100d4610278565b6040516100e19190610ba4565b60405180910390f35b61010460048036038101906100ff9190610c2d565b61030a565b6040516101119190610c88565b60405180910390f35b61012261032d565b60405161012f9190610cb2565b60405180910390f35b610152600480360381019061014d9190610ccd565b610337565b60405161015f9190610c88565b60405180910390f35b610170610366565b60405161017d9190610d3c565b60405180910390f35b6101a0600480360381019061019b9190610d57565b61036f565b6040516101ad9190610cb2565b60405180910390f35b6101be6103b7565b6040516101cb9190610da5565b60405180910390f35b6101dc6103dd565b6040516101e99190610ba4565b60405180910390f35b61020c60048036038101906102079190610c2d565b61046f565b6040516102199190610c88565b60405180910390f35b61023c60048036038101906102379190610dc0565b610492565b6040516102499190610cb2565b60405180910390f35b600660009054906101000a900473ffffffffffffffffffffffffffffffffffffffff1681565b60606003805461028790610e2f565b80601f01602080910402602001604051908101604052809291908181526020018280546102b390610e2f565b80156103005780601f106102d557610100808354040283529160200191610300565b820191906000526020600020905b8154815290600101906020018083116102e357829003601f168201915b5050505050905090565b600080610315610519565b9050610322818585610521565b600191505092915050565b6000600254905090565b600080610342610519565b905061034f858285610533565b61035a8585856105c8565b60019150509392505050565b60006012905090565b60008060008373ffffffffffffffffffffffffffffffffffffffff1673ffffffffffffffffffffffffffffffffffffffff168152602001908152602001600020549050919050565b600560009054906101000a900473ffffffffffffffffffffffffffffffffffffffff1681565b6060600480546103ec90610e2f565b80601f016020809104026020016040519081016040528092919081815260200182805461041890610e2f565b80156104655780601f1061043a57610100808354040283529160200191610465565b820191906000526020600020905b81548152906001019060200180831161044857829003601f168201915b5050505050905090565b60008061047a610519565b90506104878185856105c8565b600191505092915050565b6000600160008473ffffffffffffffffffffffffffffffffffffffff1673ffffffffffffffffffffffffffffffffffffffff16815260200190815260200160002060008373ffffffffffffffffffffffffffffffffffffffff1673ffffffffffffffffffffffffffffffffffffffff16815260200190815260200160002054905092915050565b600033905090565b61052e83838360016106bc565b505050565b600061053f8484610492565b90507fffffffffffffffffffffffffffffffffffffffffffffffffffffffffffffffff8110156105c257818110156105b2578281836040517ffb8f41b20000000000000000000000000000000000000000000000000000000081526004016105a993929190610e60565b60405180910390fd5b6105c1848484840360006106bc565b5b50505050565b600073ffffffffffffffffffffffffffffffffffffffff168373ffffffffffffffffffffffffffffffffffffffff160361063a5760006040517f96c6fd1e0000000000000000000000000000000000000000000000000000000081526004016106319190610af9565b60405180910390fd5b600073ffffffffffffffffffffffffffffffffffffffff168273ffffffffffffffffffffffffffffffffffffffff16036106ac5760006040517fec442f050000000000000000000000000000000000000000000000000000000081526004016106a39190610af9565b60405180910390fd5b6106b7838383610893565b505050565b600073ffffffffffffffffffffffffffffffffffffffff168473ffffffffffffffffffffffffffffffffffffffff160361072e5760006040517fe602df050000000000000000000000000000000000000000000000000000000081526004016107259190610af9565b60405180910390fd5b600073ffffffffffffffffffffffffffffffffffffffff168373ffffffffffffffffffffffffffffffffffffffff16036107a05760006040517f94280d620000000000000000000000000000000000000000000000000000000081526004016107979190610af9565b60405180910390fd5b81600160008673ffffffffffffffffffffffffffffffffffffffff1673ffffffffffffffffffffffffffffffffffffffff16815260200190815260200160002060008573ffffffffffffffffffffffffffffffffffffffff1673ffffffffffffffffffffffffffffffffffffffff16815260200190815260200160002081905550801561088d578273ffffffffffffffffffffffffffffffffffffffff168473ffffffffffffffffffffffffffffffffffffffff167f8c5be1e5ebec7d5bd14f71427d1e84f3dd0314c0f7b2291e5b200ac8c7c3b925846040516108849190610cb2565b60405180910390a35b50505050565b600073ffffffffffffffffffffffffffffffffffffffff168373ffffffffffffffffffffffffffffffffffffffff16036108e55780600260008282546108d99190610ec6565b925050819055506109b8565b60008060008573ffffffffffffffffffffffffffffffffffffffff1673ffffffffffffffffffffffffffffffffffffffff16815260200190815260200160002054905081811015610971578381836040517fe450d38c00000000000000000000000000000000000000000000000000000000815260040161096893929190610e60565b60405180910390fd5b8181036000808673ffffffffffffffffffffffffffffffffffffffff1673ffffffffffffffffffffffffffffffffffffffff16815260200190815260200160002081905550505b600073ffffffffffffffffffffffffffffffffffffffff168273ffffffffffffffffffffffffffffffffffffffff1603610a015780600260008282540392505081905550610a4e565b806000808473ffffffffffffffffffffffffffffffffffffffff1673ffffffffffffffffffffffffffffffffffffffff168152602001908152602001600020600082825401925050819055505b8173ffffffffffffffffffffffffffffffffffffffff168373ffffffffffffffffffffffffffffffffffffffff167fddf252ad1be2c89b69c2b068fc378daa952ba7f163c4a11628f55a4df523b3ef83604051610aab9190610cb2565b60405180910390a3505050565b600073ffffffffffffffffffffffffffffffffffffffff82169050919050565b6000610ae382610ab8565b9050919050565b610af381610ad8565b82525050565b6000602082019050610b0e6000830184610aea565b92915050565b600081519050919050565b600082825260208201905092915050565b60005b83811015610b4e578082015181840152602081019050610b33565b60008484015250505050565b6000601f19601f8301169050919050565b6000610b7682610b14565b610b808185610b1f565b9350610b90818560208601610b30565b610b9981610b5a565b840191505092915050565b60006020820190508181036000830152610bbe8184610b6b565b905092915050565b600080fd5b610bd481610ad8565b8114610bdf57600080fd5b50565b600081359050610bf181610bcb565b92915050565b6000819050919050565b610c0a81610bf7565b8114610c1557600080fd5b50565b600081359050610c2781610c01565b92915050565b60008060408385031215610c4457610c43610bc6565b5b6000610c5285828601610be2565b9250506020610c6385828601610c18565b9150509250929050565b60008115159050919050565b610c8281610c6d565b82525050565b6000602082019050610c9d6000830184610c79565b92915050565b610cac81610bf7565b82525050565b6000602082019050610cc76000830184610ca3565b92915050565b600080600060608486031215610ce657610ce5610bc6565b5b6000610cf486828701610be2565b9350506020610d0586828701610be2565b9250506040610d1686828701610c18565b9150509250925092565b600060ff82169050919050565b610d3681610d20565b82525050565b6000602082019050610d516000830184610d2d565b92915050565b600060208284031215610d6d57610d6c610bc6565b5b6000610d7b84828501610be2565b91505092915050565b6000610d8f82610ab8565b9050919050565b610d9f81610d84565b82525050565b6000602082019050610dba6000830184610d96565b92915050565b60008060408385031215610dd757610dd6610bc6565b5b6000610de585828601610be2565b9250506020610df685828601610be2565b9150509250929050565b7f4e487b7100000000000000000000000000000000000000000000000000000000600052602260045260246000fd5b60006002820490506001821680610e4757607f821691505b602082108103610e5a57610e59610e00565b5b50919050565b6000606082019050610e756000830186610aea565b610e826020830185610ca3565b610e8f6040830184610ca3565b949350505050565b7f4e487b7100000000000000000000000000000000000000000000000000000000600052601160045260246000fd5b6000610ed182610bf7565b9150610edc83610bf7565b9250828201905080821115610ef457610ef3610e97565b5b9291505056fea26469706673582212209fb8e2fc0c65665ca2b177a45587767e2e1f3c80886d277111c2f86aef8e7b4b64736f6c634300081b0033a26469706673582212202d85073804821cc393f4763ea4608a93697a4b5ac1e40028576ae55c7b5f241964736f6c634300081b0033",
  "linkReferences": {},
  "deployedLinkReferences": {}
}